:020000040800F2
:10000000C8150020E9020008E35600089D4D0008CD
:10001000E1560008FD1E00089D6500080000000074
:10002000000000000000000000000000C95F0008A0
:10003000CB1F000800000000595E0008196000088E
:100040000303000803030008030300080303000878
:100050000303000803030008030300080303000868
:10006000030300080303000803030008011F00083E
:100070000D1F0008191F00080303000803030008F0
:100080000303000803030008030300080303000838
:100090000303000803030008030300080303000828
:1000A0000303000803030008030300080303000818
:1000B0000303000803030008030300080303000808
:1000C00003030008030300080303000803030008F8
:1000D00003030008030300080303000803030008E8
:1000E00003030008030300080303000803030008D8
:1000F00003030008030300080303000803030008C8
:1001000003030008030300080303000803030008B7
:1001100003030008030300080303000803030008A7
:100120000303000803030008030300080303000897
:100130000303000803030008030300080303000887
:100140000303000803030008030300080303000877
:100150000303000803030008030300080303000867
:100160000303000803030008030300080303000857
:100170000303000803030008030300080303000847
:100180000303000803030008030300080303000837
:100190000303000800000000030300080303000835
:1001A0000303000803030008030300080303000817
:1001B0000303000803030008030300080303000807
:1001C00003030008030300080303000803030008F7
:1001D000030300080303000800F002F800F075F8BC
:1001E0000AA090E8000C82448344AAF10107DA4592
:1001F00001D100F06AF8AFF2090EBAE80F0013F06F
:10020000010F18BFFB1A43F0010318479CA7000019
:10021000BCA700000A444FF0000C10F8013B13F09B
:10022000070408BF10F8014B1D1108BF10F8015B4F
:10023000641E05D010F8016B641E01F8016BF9D142
:1002400013F0080F1EBF10F8014BAD1C0C1B09D199
:100250006D1E58BF01F801CBFAD505E014F8016B0B
:1002600001F8016B6D1EF9D59142D6D3704700009D
:100270000023002400250026103A28BF78C1FBD8AF
:10028000520728BF30C148BF0B607047662909F08C
:100290003B82642900F01481732900F060850020FE
:1002A00070471FB509F01BFA01F010F80400002098
:1002B000002108F031FC401C60600020002108F0A3
:1002C00015FCE0601FBD10B510BD01F0C5FA114668
:1002D000FFF7E7FF06F0DAF901F016FD03B4FFF7C8
:1002E000F2FF03BC01F06AFD094880470948004756
:1002F000FEE7FEE7FEE7FEE7FEE7FEE7FEE7FEE7D6
:10030000FEE7FEE704480549054A064B7047000032
:1003100085600008D9010008C8090020C815002020
:10032000C80D0020C80D002053EA020C00F06980BF
:100330002DE9F04B4FF00006002B1FBFB3FA83F5F9
:1003400003FA05F424FA05F65E4012BF1643B2FA2A
:1003500082F502FA05F4C5F120051EBF22FA05FC5C
:1003600044EA0C04203556EA044C4FEA144418BF02
:10037000641C4FF000084FF00009904271EB030C31
:1003800039D3002919BFB1FA81F701FA07F6B0FA9B
:1003900080F700FA07F6C7F120071EBF20FA07FC16
:1003A00046EA0C062037B6FBF4FCA7EB0507103F26
:1003B00007F01F0BCBF120062CFA06F60CFA0BFB0C
:1003C00044BFB3460026202FA4BF5E464FF0000B6B
:1003D0005BEA060C08BF4FF0010B19EB0B0948EB69
:1003E0000608ABFB027C06FB02CC0BFB03CCC01B5C
:1003F00071EB0C01C1E70B46024641464846BDE899
:10040000F08B13B5084318BF4FF0FF300146AFF330
:100410000080BDE81C407047B2F120030AD5C2F14C
:10042000200301FA02F120FA03F341EA030100FA82
:1004300002F0704700FA03F14FF00000704700002F
:100440000FB41CB5084B06AA7B446946009005987A
:1004500000F05BFC04460020694600F069FC204681
:100460001CBC5DF814FB0000E508000070B50C46EC
:100470000546012A05D02878800600D5EA690023C0
:1004800002E0012305E05B1C934202D2E05C0028FD
:10049000F9D1A869E618C01AA861286A1844286228
:1004A0002846AFF3008004E0D5E9012114F8010BE0
:1004B0009047B442F8D32846AFF3008070BD0000E7
:1004C0002DE9F0410646002410687529314616A52D
:1004D00010D0AFF30080002802DA404213A507E0F5
:1004E00031688A0701D512A502E0490704D511A594
:1004F000012401E0AFF3008000210A2206F1240765
:1005000009E0B0FBF2FCB0FBF2F302FB1C00303060
:1005100078541846491C0028F3D123462A46304611
:10052000BDE8F04100F084B9000000002D0000009B
:100530002B000000200000002DE9F05F89460446F2
:100540004FF0000ADFF874B1FB44C0F820A0204649
:10055000E1688847002874D0252806D0D4E9012115
:100560009047206A401C2062F1E700265F46204643
:10057000E16888472028054607DB312D05D2781928
:1005800010F8200C08B10643F1E7B00701D526F0BA
:100590000406C4F81CA00027C4F818A02A2D09D00E
:1005A000284608F054FA38B304EB8708303DC8F801
:1005B000185019E059F8041B204604EB870291619A
:1005C000E1688847012F054618D1E069002820DA44
:1005D00026F020061DE0D8F8180000EB800005EB9F
:1005E00040003038C8F818002046E16888470546C2
:1005F00008F02DFA0028EED1012F0AD02E2D08D1B7
:100600002046E16888477F1C0546022F46F02006F9
:10061000C4DBA069002803DA404246F00106A0616D
:10062000F00701D026F010066C2D0BD0682D09D0F4
:100630004C2D39D06A2D35D0742D35D07A2D33D04C
:1006400016E038E0E1682F4620468847B842054664
:1006500009D16C2F26D04FF48060E1680643204614
:100660008847054604E06C2F1AD04FF4807006438B
:100670000DB3A5F14100192802D8203546F40066D3
:100680004A462946204626604E46FFF7FFFD80B1C8
:1006900001280BD0F61D26F0070000F1080956E7E7
:1006A0004020E4E78020D8E70020D6E706F10409DF
:1006B0004DE7284652E7206ABDE8F09FBC92000053
:1006C0000FB400B58DB010A9099000910B904FF0B8
:1006D000FF300A9000200C900648784406900648A7
:1006E00078446A4607900F9909A800F0BFFD0DB045
:1006F0005DF814FBAF0B0000C70B000040EA0103DC
:10070000024630B59B0710D14FF0013400E008C21B
:1007100008C91D1B9D4315EAC41FF8D013F0FF0143
:1007200002F8011B0DD01B0AF8E711F8013B002B62
:1007300002F8013B05D011F8013B002B02F8013B08
:10074000F3D130BD10B5431C02E010F8011B71B1AC
:100750008107FAD14FF0013202C88C1A8C4314EA97
:10076000C211F9D0C01A0A0603D0C01E10BDC01AAB
:1007700010BD0A0401D0801E10BD0902FCD0401E2D
:1007800010BD4FF000020429C0F0128010F0030CDD
:1007900000F01B80CCF1040CBCF1020F18BF00F874
:1007A000012BA8BF20F8022BA1EB0C0100F00DB823
:1007B0005FEAC17C24BF00F8012B00F8012B48BF81
:1007C00000F8012B70474FF0000200B51346944625
:1007D0009646203922BFA0E80C50A0E80C50B1F199
:1007E0002001BFF4F7AF090728BFA0E80C5048BFAD
:1007F0000CC05DF804EB890028BF40F8042B08BF4B
:10080000704748BF20F8022B11F0804F18BF00F846
:10081000012B704770477047704710B500F05AFDC4
:10082000006810BD10B5044600F054FD046010BD12
:100830002DE9F0470D4699469246044600F12408FA
:100840000168880604D5E06921F01001216000E00C
:100850000120A84201DD471B00E00027A1697A19A9
:1008600002EB0900081AA0612078C00602D42046D5
:10087000AFF30080002608E0D4E901211AF8060051
:100880009047206A401C761C20624E45F4DB20789D
:10089000C0060AD52046AFF3008006E0D4E9012166
:1008A00030209047206A401C2062381EA7F10107C3
:1008B000F4DC07E0D4E9012118F805009047206A2C
:1008C000401C2062281EA5F10105F3DC2046AFF391
:1008D00000802078000602D50220BDE8F0870120C4
:1008E000FBE72DE9FF4F0C461E464FF0FF378BB05C
:1008F000D2E90001DDF860800A908A46C1F30A550A
:1009000005B93D46002108464FF00000BAF1000F3E
:1009100000F4400005DA00EB80004FF4400101EAEA
:1009200050004FEA9059B9F1010F00DDB9460A981D
:1009300050EA4A000ED044F61050A5F2FF35454368
:100940002F14B8F1000F1ED07542291E1EDDC9F10B
:1009500000021CE0B8F1010F4FF0000001D030217F
:1009600003E0F24305E02154401CB042FBDB30467B
:100970000022002121540B99C1F80880C1E9002010
:100980000FB0BDE8F08FBD1B6D1CDEE74A4600DAF4
:10099000694206A800F0EAFE06AB93E8070003AB45
:1009A00083E8070050460A9907F0CDFA8DE8070062
:1009B000A0F500501F3800900398002D0ADD42F288
:1009C0001F014A460844002303A90390684607F024
:1009D00079FD09E0A0F500504A461F38002303A91D
:1009E0000390684607F098FD8DE807000004000CAE
:1009F00003D04FF0FF30410800E01046B8F1000F7F
:100A000003D00022009215461EE0751E05D400F0AA
:100A100065FC303262556D1EF9D5B346012208439C
:100A200002D000227F1C04E02078302801D100226F
:100A30007F1E002A099784D01DE0112D07DA00F0EF
:100A40004DFC303262556D1C50EA0102F5D108436D
:100A500002D00098C8B10EE00021681E05E0235CBA
:100A6000625C63542254401E491C8142F7DBAB4652
:100A7000A81B401E0990002004F80B000B98099A4F
:100A8000C0F80880C0E9002B7AE711264FF0000873
:100A900057E72DE9F04F88460446D21D22F00701A2
:100AA00091B0D1E90001CDE90A0107F081FE0246CB
:100AB0000B98C00F01D02D2007E02068810701D5D9
:100AC0002B2002E0202101EAC000032A099001D076
:100AD000072A05DB03464146204600F04DFC0BE1AA
:100AE0002078800601D5E06900E00620B8F1650FA6
:100AF000814606D0B8F1660F18D0B8F1670F70D1F3
:100B000031E00020B9F1110F009001DB112301E069
:100B100009F101030AAA01A90CA8FFF7E2FEDDE929
:100B20000C70002609F10105834647E001204B4681
:100B300000904FF000470AAA01A90CA8FFF7D1FEC8
:100B4000DDE90DB00C995D46002610B909F10100F0
:100B50000D18B9EB050003D4C0F1FF3609F101050A
:100B6000A5EB09002BE0B9F1010F01DA4FF0010903
:100B70000020B9F1110F0090484601DD112300E07B
:100B800003460AAA01A90CA8FFF7ABFEDDE90C7029
:100B90004D4600268346207800070AD4AB4500DA8C
:100BA0005D4601A8012D04DD411911F8011C302911
:100BB00007D04F4502DA17F1040F04DA012082460C
:100BC0000FE06D1EEEE7002F02DCED1B3E4403E05C
:100BD000781CA84200DD7D1CB81B00F1010A4FF013
:100BE00000472078000703D4AA4501DB4FF0FF3A05
:100BF0000021B7F1004F0DF143088DF8431024D0C8
:100C000002202B23002F01DA7F422D230A21021E0E
:100C1000A0F1010000DC5FB197FBF1FC97FBF1F262
:100C200001FB1C7C17460CF1300C08F801CDEEE7F7
:100C3000A8F1010003702188090501D5452100E0D4
:100C40006521A0F1010800F8011C09980FA9A1EB8A
:100C50000807FF1D00B10120411901EBEA70A169ED
:100C60003844081A401EA0612078C00602D42046ED
:100C7000AFF30080099828B1D4E901219047206A98
:100C8000401C20622078C00622D52046AFF30080A9
:100C90001EE0002E04DBB34502DD01A8805D00E00C
:100CA0003020D4E901219047206A401C2062761C44
:100CB000AAF101005FEA000A0AD100F007FBC06850
:100CC0000168405CD4E901219047206A401C206201
:100CD000281EA5F10105DCDC07E0D4E9012118F8A4
:100CE000010B9047206A401C2062381EA7F10107C3
:100CF000F3DC2046AFF30080032011B041E6000092
:100D000001694A1C02610878704700B58FB0CDE9CF
:100D100001310021059105497944CDE903101146BF
:100D20006846FFF709FC0FB000BD0000E5FFFFFFBC
:100D30000A6802F8010B0A60704710B5436913B1E5
:100D4000AFF3008001E0FFF791FB012010BD1278A6
:100D500000F124010A7000224A700122EDE71168B7
:100D60004FF0FF32E9E700002DE9FF4F06468BB058
:100D70000878FF2806D0491C2D2805D000244FF004
:100D8000000908E000200CE00124F8E709EB8903E2
:100D9000491C00EB43090878FF28F7D114B1C9F1C9
:100DA00000008146107800252C46AA4629462D28A9
:100DB00001D02B2804D1521C2D2813D000208246AC
:100DC0008B461078FF280FD04FF0000C0A21521CE0
:100DD000A5FB017804FB018105FB0C11C5194BEB48
:100DE0000104EEE70120EAE7002108464FF0000089
:100DF000BAF1000F02D000EB80004008C0F3815729
:100E0000012F01DD4FF0FF370E9955EA040009EB81
:100E100001080BD04FF0020918F5FA7F16DA4FEAF5
:100E2000CA70002F706008DD012007E04FEACA7029
:100E3000C6E900B00FB0BDE8F08F0020306000F0D0
:100E400049FAC0F800901821084616E0B8F5FA7F74
:100E500018DD002F02DAF748784401E0F6487844BC
:100E6000D0E90010C6E9001040EACA70706000F0D6
:100E700031FAC0F80090142108460FB0BDE8F04FD9
:100E800008F03FBC002108464FF00000B8F1000117
:100E9000099002DAC7F1000200E03A4601DAC8F12F
:100EA000000106A800F062FC06AB93E8070003AB64
:100EB00083E8070044F23E005BEA040100905846D4
:100EC00004D144F21E012C465D460091210C090418
:100ED000014306D10099240444EA15442D04103935
:100EE000009104F07F41014306D10099240244EAB5
:100EF00015642D020839009104F07041014306D1B8
:100F00000099240144EA15742D01091F009104F091
:100F10004041014306D10099A40044EA9574AD0014
:100F2000891E009104F00041084304D100986D1916
:100F30006441401E00904FF001033A466846B8F104
:100F4000000FCDE9014503A902DD07F0FAFA01E03F
:100F500007F0CDFABAF1000F04460D4601D084F037
:100F60000044002108464FF00000099940F2FF7745
:100F7000484010F00C0F07D124F00040284303D064
:100F8000C4F30A50B84212D100F0A4F9C0F800909E
:100F9000C4F30A50B8420AD1A8487844D0E90010F6
:100FA000C6E9001004F000410843706042E7C6E95A
:100FB00000543FE72DE9FF4F1F464FF0000A4FF066
:100FC000FF38454691B0D7E90146CDF83CA000F086
:100FD0007DF9C0680168405C1090B96912986D1C79
:100FE0008847396A814688470028F6D1B9F1FF3F22
:100FF0000AD0002E24F4D06411DDB9F12B0F08D0F3
:10100000B9F12D0F0BD102E0404615B013E744F4BF
:101010008064B96912986D1C8847761E8146600508
:1010200004A901D52D2000E02B20002E01F1010B99
:101030000DF130088DF810003FDDB9F1690F08D0CF
:10104000B9F1490F05D0B9F16E0F02D0B9F14E0FC9
:101050001CD13B4601A8009580E85002DDE9121240
:101060006FF0020008F0B6FBC11CCED10EE0B969EA
:1010700012986D1C884781461398761E44F40074BC
:1010800005600F98401C002E0F9016DDB9F1300F4F
:10109000EDD0B9F1780F02D0B9F1580F0DD10F98FA
:1010A00001280AD13B46CDE90054DDE91212001FA8
:1010B000029608F08DFBC11CA7D1109989453ED13D
:1010C00044F0800406E01399681CAAF1010A44F474
:1010D00000740860B9696D1C1298761E8847302824
:1010E0008146F0D02BE01099894505D1200603D424
:1010F000761E44F0800418E0484607F0A8FC08B3C8
:10110000761E0DF123029345A9F1300044F40074DA
:1011100006D20BF8010B200607D5AAF1010003E067
:10112000200602D40AF101008246A00502D51399D7
:10113000681C0860B96912986D1C88478146002EAA
:10114000D1DC53E0002E51DDB9F1650F02D0B9F1C9
:10115000450F4BD1A00549D5B9696D1C1298761E73
:1011600024F440748847002E81460CDD2B2804D0DF
:10117000B9F12D0F07D144F48074B96912986D1C30
:101180008847761E8146E00501D52D2100E02B2100
:1011900008F8011BCDF8008021E0761E0DF1390121
:1011A000884544F400740CD2A9F1300010F0FF001F
:1011B00088F8000002D10099884509D908F1010892
:1011C00006E0E00501D51E4801E042F20F708246BC
:1011D000B96912986D1C8847814613980560002EE6
:1011E00004DD484607F033FC0028D6D1F96912988F
:1011F0008847FF2053468BF8000088F80000002045
:101200000A900B9004AA0CA90AA8FFF7ADFDA0054F
:1012100002D46FF00100F8E614F0240F12D0E007BA
:101220001CD13868DDE90A12031D3B600068C0E983
:10123000001213E0749B0000669B00002A9A0000D5
:10124000F1D8FFFF0AA9684607F0EEFBE00705D1D9
:101250003868009A011D3960006802602846D4E6AB
:10126000026811441378016018467047D16005493F
:101270007944516104497944116200211161114698
:1012800000F0BAB8EDFFFFFFED000000426842B188
:10129000016811F8013B23B1521EC0E90012184643
:1012A00070470121C160881E704742685AB1C36807
:1012B000016843B983688B4205D0491E521CC0E9BE
:1012C0000012002070474FF0FF3070470048704711
:1012D000F801002000487047D801002030B5B0F177
:1012E0000A0271F100034FEA900E4EEA817EB0EBE4
:1012F0000E0061EB91014FEA101E4EEA017E10EBE9
:101300000E0041EB11114FEA102E4EEA016E10EB68
:101310000E0041EB11214FEA104E4EEA014E10EB48
:101320000E0041EB1141401841F100014FEAD0009D
:1013300040EA41704FEAD1014FEA810444EA9074D7
:1013400010EB800544EB01046D1944EB0404521BBF
:10135000A3414FF0000348BF0A3200D530BD401C06
:1013600041F1000130BD10B5044600F09BFA006861
:10137000005D00F0010010BD2DE9F0411F4604465C
:1013800003260168072A01F4006004DB08B116A5F2
:1013900005E016A503E008B115A500E015A521F0AC
:1013A00010002060A069C01EA0610FB1401EA061A6
:1013B0002046AFF300804FB1D4E901213846904771
:1013C000206A401C2062C01C206206E0206AFAE706
:1013D000D4E9012115F8010B9047761EF8D220467A
:1013E000AFF30080BDE8F0814E414E006E616E00AB
:1013F000494E4600696E66002DE9F34F4FF0000A32
:101400000C4656468DB001200C9001F10C000B905B
:1014100062690B9801219047051E2DD0252D2CD0F7
:10142000216A8847C0B162690B9801219047216AFF
:1014300088470028F7D16269411E0B98904700E069
:10144000761CA1690D988847216A88470028F7D142
:10145000E1690D988847DBE7A1690D988847A842A4
:10146000074601D1761CD3E7E1690D9888477F1CB8
:1014700002D1BAF1000F6FD06BE162690B980027BF
:101480003D46394690472A2804D162690B980121CC
:1014900090470125DFF8D08262690B9801219047BF
:1014A000A0F130010A290AD24745E5DC07EB8701A4
:1014B00000EB4107303FDFD445F01005ECE7E906CB
:1014C00001D46FF000476C280AD04C2814D068284B
:1014D00015D06A280DD074281CD07A281AD01DE0A7
:1014E00062690B98012190476C2802D045F00405F1
:1014F00014E045F002050DE045F020050AE06269C0
:101500000B9801219047682802D045F0080505E0B6
:1015100045F4006562690B9801219047C4E90157C1
:1015200065283DD019DC58287AD00CDC452837D006
:1015300004DC252826D041289ED131E046282FD032
:10154000472899D12CE05B2877D0612828D06328E0
:101550007CD0642823D15AE0F6E06F2848D008DC1C
:1015600066281DD067281BD0692821D06E2816D187
:1015700027E0702845D0732868D0752847D0782890
:101580000DD14DE0A1690D988847252805463FF407
:1015900069AFE1690D9888476D1C3FF46AAFD8E0E8
:1015A0000D9923466A466FF0010008F00FF9C5E077
:1015B00045F0400023464FF000026060A80736D493
:1015C0003EE0E8077FF447AF2068011D2160006816
:1015D000290501D506701BE7290701D5068017E705
:1015E000A90703D5F117C0E9006111E706600FE70D
:1015F00045F0400023464FF008026060A80716D46B
:101600001EE040F60E0125EA0100606016E045F09C
:10161000400023464FF00A026060A80707D40FE09D
:1016200045F040006060A80708D5234610220D99B8
:101630006FF00100AFF3008080E007E01022234646
:101640000D996FF00100AFF3008077E04FF00009D3
:1016500063284F46C8464B46CB4602D05B2806D08F
:1016600038E0E80601D40120A060012732E0626979
:10167000D4F80CB00B98012190475E2807D14FF0A9
:10168000010949466269D4F80CB00B98904721696A
:1016900039B900210A4603AB43F82120491C082927
:1016A000FADBD8B3216949B308F1010862690B98E4
:1016B000012190475D28F4D1B9F1000F09D0002035
:1016C00003A951F82020D24341F82020401C0828CB
:1016D000F7DB03AB2069002820794FEA40701ED069
:1016E0005B462246CDF80080CDE901970D99002890
:1016F0006FF0010020DAAFF300801FE0C11703AAEA
:1017000000EBD1614B1121F01F0102EB8302411A62
:1017100013680120884003431360C7E719E00D995F
:10172000224600286FF00100009702DAAFF3008034
:1017300004E0AFF3008001E0AFF3008000280ADA94
:10174000401C06D10C9820B14FF0FF300FB0BDE81F
:10175000F08F5046FAE7E90701D10AF1010A064481
:1017600000200C9054E60000CCCCCC0C2DE9F047C6
:10177000814616468AB0354878440DC88DE80D007C
:1017800032487844801C03AC0DC884E80D0041F653
:101790009B300844372190FBF1F290FBF1F5A5F165
:1017A000800501FB12041B3C02D56442012000E0CD
:1017B0000020DFF898A080460027FA44AAF1BE0A6C
:1017C0000EE0E0070AD03246684607EB47010123E6
:1017D0000AEB810106F0A0FE8DE8070064107F1C73
:1017E000002CEED1194F7F44AE3F19E0E80715D029
:1017F00007EB04100DF1180A90E80E008AE80E00BD
:10180000C068F04201D1981908903246012306A918
:1018100003A806F081FE03AB83E807006D10641C8B
:10182000002DE3D14FF0010332466946B8F1000FB5
:1018300003A802D006F046FE01E006F06DFEC9E9FD
:101840000001C9F808200AB0BDE8F0871C8100003B
:1018500000487047D80100207546FFF7F9FFAE46F3
:1018600005006946534620F00700854618B020B5AC
:10187000FEF748FDBDE820404FF000064FF000079E
:101880004FF000084FF0000BAC46ACE8C009ACE8E4
:10189000C009ACE8C009ACE8C00921F007018D46D9
:1018A0007047000010B5FFF711FD001D10BD00BF0F
:1018B000697200002DE9FF4F1F464FF03C0987B0C9
:1018C0004FF00042DDE9141001F10108DDF858A0E5
:1018D00002EA4050039000200590834605460446E6
:1018E0000490B969461E08988847AAF1010A029037
:1018F000BAF1000F3BDD02982E2815D0102100F020
:101900004EFA00282EDB4FF0010B0599014317D04A
:10191000B9F1000F0BDB4A46C117FEF77DFD054309
:101920000C43A9F1040905E0012004900BE008B183
:1019300045F0010501200590049820B9361D02E00C
:10194000049800B1361FB969089808F10108884762
:10195000BBF1000FAAF1010A0290C9D00999C1F8A0
:101960000080C5E70298702808D0502806D0F96991
:1019700008988847BBF1000F14D04FE00020029078
:101980000120BBF1000F049009D0B969089808F153
:1019900001088847AAF10109B9F1000F07DCF969CC
:1019A000089888476FF001000BB0BDE8F08F2B2836
:1019B00004D02D280CD14FF0FF300490B96908985D
:1019C00008F101088847A9F10109B9F1000FE6DD26
:1019D000411CE4D00A2100F0E2F90028DFDB029983
:1019E00008F1010801EB810100EB41000290B969A7
:1019F000089888470A2100F0D2F9099AA9F101094B
:101A0000B9F1000FC2F8008001DD0028E7DAF969BA
:101A1000089888470499029800FB016655EA04007B
:101A200004D004F04041090002D006E0039898E099
:101A3000A40044EA9574AD00B61E04F0004108000D
:101A400002D16D196441761E159810F0240F03D051
:101A50004FF00B095C4803E04FF028096FF07D0060
:101A60008246564507DAAAEB06018944B9F1410FCF
:101A700001DD4FF0410901200021A9F10102FEF72B
:101A8000CBFC024628400B462140084301D00121EF
:101A900000E00021501E029143F1FF312840214017
:101AA000084301D0012000E000200299834651EA5A
:101AB0000B014FD0002108464FF00000039900F4BD
:101AC000400039B100EB80004FF4400100EBD070D2
:101AD00001EA60008015012802DD4FF0FF3000E0D0
:101AE00013D0401C36D0029860B3BBF1000F0CD16C
:101AF0004A4601200021FEF78FFC28402140084380
:101B000001D0012000E00020E0B101204A46002180
:101B1000FEF782FC034640190A4661412D1A8C41AA
:101B200011D3B9F1400F09DD159810F0240F02D040
:101B3000AAF1340603E0AAF1170600E0761C00259E
:101B40004FF0004406E05B1E42F1FF3220EA03053D
:101B500021EA0204CAF10100B04206DA1B490398E7
:101B600008430190002000900EE0039AC4F3D321B3
:101B7000E80A0A43164940EA44500A433146CDE98F
:101B80000002684606F059FF159810F0240F0BD09C
:101B90001598C00715D13868DDE90012031D3B60B8
:101BA0000068C0E900120CE002A8694606F03CFF9C
:101BB0001598C00705D13868029A011D3960006880
:101BC00002604046F0E6000002FCFFFF0000F07FEC
:101BD0000000F03F2DE9FF4F92461D4685B04FF0C3
:101BE0000041DDE9124BDDE914727F1E01EA4B5022
:101BF000414940F0FF4940EA0108002122F020005D
:101C00004928049102D04E2828D04CE03BA0012660
:101C100007C88DE80700A9690698641C88477F1EDD
:101C2000014606D41DF8060018B121F020018142BA
:101C30000BD0E96906988847032E34D0082E32D09D
:101C40006FF0010009B0BDE8F08F761C032E01D0C3
:101C5000082EE0D1601CCAF80000DCE7A9690698EC
:101C6000641C88477F1E2AD420F02000412826D1FA
:101C7000A9690698641C88477F1E20D420F02000A4
:101C80004E281CD1A9690698641C88477F1E48F419
:101C9000002849F48009CAF8004001D4282806D059
:101CA000E969069888475FEACB7012D022E0A969FB
:101CB0000698641C88477F1E01D4002803DAE9696E
:101CC00006988847BCE72928F1D1641CCAF800406F
:101CD000E9E71BF0240F07D028680499031D2B6047
:101CE0000068C0E9001805E02868021D2A60006845
:101CF000C0F800902046A5E70000F07F494E464915
:101D00004E4954590000000010B50446AFF300805E
:101D10002046BDE81040FEF7E1BA000000000000D8
:101D200030B44FF0013C50F8042B51F8043BCCFA8E
:101D300052F4D51A20D1FCB950F8042B51F8043BC9
:101D4000CCFA52F4D51A17D1B4B950F8042B51F883
:101D5000043BCCFA52F4D51A0ED16CB950F8042BCE
:101D600051F8043BCCFA52F4D51A05D1002CDAD044
:101D700030BC4FF00000704729BAB1FA81F111F080
:101D80001801D1F120008440F2D1CA40CB4012F0BA
:101D9000FF0213F0FF0330BCD01A704770473A2897
:101DA00000D2303820F02002412A01D3A2F13700BE
:101DB000884201D34FF0FF307047000001491820DE
:101DC000ABBEFEE7260002000146806AC36DC26D0D
:101DD00013F0500F07D0D20648BF00F056BD406D3B
:101DE000426B0846104742F40071C16501680B68F8
:101DF000CA681B0703D4910707D500F05DBB12F436
:101E0000406FFAD1C9688904F7D4C16D21F480719B
:101E1000C165C16DC904F0D4C16D41F00101C16556
:101E200000F04ABB806AC16D41F04001C165016E9E
:101E300041F00401016600F028BD806A00F024BD75
:101E4000B0B5016804468A688868C0074FF0000092
:101E500022D012F002021FD1886800F00D00012884
:101E600018D18868244A1040023088600320086036
:101E700001F088FA054620688068C00704BF00208A
:101E8000B0BD01F07FFA401B0328F4D320688068BE
:101E9000C007F0D003F001FFB0BD00BF70B504462D
:101EA00000688168C90725D1134E816806F17F0259
:101EB000114201D003F0FCBC8168314041F00101C6
:101EC000816001F05FFA054620680168C90711D1F9
:101ED0008168C90704D18168314041F00101816006
:101EE00001F050FA401B0328EED320680068C007B9
:101EF000EAD1DFE7002070BDC0FFFF7FFEE70000F2
:101F0000014801F07EB800BF78050020014801F0CB
:101F100078B800BF38060020014801F072B800BF51
:101F2000D805002010B510490368446C01F1800207
:101F3000C264A1F57E72203193423CBF40F600019D
:101F4000C4F2020124F0030211441422816403F05C
:101F5000FC010839B1FBF2F1012201F01F0102FA84
:101F600001F1016510BD00BF0008024010B5037902
:101F7000064901245430013B01F1400201EB830189
:101F800003F01F0304FA03F30EC010BD0009024062
:101F9000F0B500F14C0670CE656016B1D0E916457B
:101FA000656004688568D0E91060012700F01F00B3
:101FB000102D07FA00F070600846636008BF1046F5
:101FC000A06008BF0A46E260F0BD7047EFF31080E2
:101FD00072B6FEE7BCB504460020019094F85800A4
:101FE000012804BF0220BCBD01200D4684F8580022
:101FF00003F005FEE16D10B141F0100124E041F263
:102000000212144B91430231E16521688A681A403B
:1020100005F080431A4402F100428A600E4A8B6840
:10202000B3F1FF3F0CDC019B01330193019B934211
:10203000F5D3E06D40F0100020F00201012003E034
:10204000E16D012262F30101002284F85820E1656C
:10205000BCBD00BFC0FFFF3F02DE0400FCB590F82E
:102060005820012A01D102216FE000220192009242
:10207000374A046802F1F805B4F1A04F05D0354B9A
:102080009C422BD102F59F6300E02B469B68A6681B
:1020900033435B0722D44FF4E063AC4208BF4FF4F4
:1020A0004073B4F1A04F08BF4FF44073D558D1F836
:1020B00000C025F46046BCF1000F15D090F83870D0
:1020C0004D6844F4807445EA47353543D550F14DA9
:1020D000AC4213D11468D2F8006117E0C16D41F031
:1020E0002001C16501212DE044F48071E94CD650F6
:1020F000A14217D11168D2F800411AE0D2F8004489
:10210000D2F8005545EA0406D2F800463443E40705
:1021100017D1D45840F61F758968AC43214341EA72
:102120000C010DE0D2F80014D2F800450C43D2F8AF
:1021300000162143C90704D1D15840F61F74A143AA
:10214000D1500021002280F858200846FCBD00BF75
:102150000800005000040050F8B50446002000902C
:1021600094F85800012804BF0220F8BD01200D4654
:1021700084F8580020688168490722D4D5E9001204
:102180001F2602F01F03C2F30122C1F3846100EB9A
:1021900082029E409940176B27EA0606314311637D
:1021A00003F0E4FB40F0AC80AA682968B2F1004F6C
:1021B0000DD1002202F004FF2068416941F0004186
:1021C0000BE0E06D40F02000E065012054E102F0FA
:1021D000F7FE2068416921F000414161D5E9041210
:1021E000C368042923D1016E066E2B68A54A1946DF
:1021F000C3F3846E93FAA3F3C6F384666FF3DF41EF
:10220000B3FA83F300291F4608BF7746BE423AD18E
:10221000016E944621F0004101662B6803EA020139
:10222000C3F3846E93FAA3F3B3FA83F32CE000F1C3
:102230006007D5F800C0924E57F821E00EEA060E6E
:10224000062606EA93039A400CF0F8431A4342EA42
:102250000E0242F0004247F821202969AA6957F886
:10226000213023F080731A4347F82120296957F859
:1022700021202B7F22F00072012B08BF02F1007297
:1022800047F821203CE094461E46002908BF7646C8
:10229000476E476EC7F38467B7420DD1416E21F098
:1022A0000041416661462B6803EA0C01C3F3846E6A
:1022B00093FAA3F3B3FA83F31E46002908BF7646C8
:1022C000876E876EC7F38467B7420CD1816E21F0A9
:1022D000004181662B6803EA0C01C3F3846E93FA14
:1022E000A3F3B3FA83F3002908BF7346C16EC16E2E
:1022F000C1F38461994203D1C16E21F00041C166EE
:102300008168C90757D12A68EB685F4E1146B3420E
:102310006FF3DF4123D1D0F8B0300B43C0F8B030B9
:1023200021B392FAA2F1B1FA81F14A1C02F01E0324
:10233000092B0B4625D802F01F020126013106FAAF
:1023400002F24FF0806601F01F0106EB836301EBA0
:10235000410103F0F84343EA0151114328E0D0F86A
:10236000B02022EA0101C0F8B01024E00121C2F33C
:10237000846301EB926101F01E06910E5A1C0A2E35
:10238000D9D30131414E02F01F0201F01F0101EBD0
:10239000410106EB01514FF0806606EB836303F0C9
:1023A000F8431943012303FA02F2114341F000718B
:1023B000AA6802F005FE2F68354807425BD0354811
:1023C0002368354E00F5007283428646154618BFD5
:1023D00000F5C0652846B3F1A04F08BF10468168DC
:1023E000B74201F0E07C02D02C4EB7421FD10E0262
:1023F0001DD42B498B4202D0B3F1A04F3BD1816851
:1024000021F0E07141EA0C0141F4000181602548AE
:1024100025490068B0FBF1F00C2100EB400001EB16
:1024200080000090009830B300980138F9E71F4E03
:10243000B74208BF11F0807615D01D4E0020B7427C
:1024400008BF11F4800117D1B3F1A04F02D073453A
:1024500011D02A46906820F0E07040EA0C0040F469
:102460008000906007E0816821F0E07141EA0C0192
:1024700041F0807181600020002184F85810F8BD7F
:1024800000F0FF03FFFF070000007F40000020FE78
:102490000000088000010050000021C31000C0901F
:1024A000000600508C010020400D0300000052C7C0
:1024B000000084CB00000000F8B52DED028B006811
:1024C000DD49884203D0BDEC028B01B0F0BDDB4E8C
:1024D000DE4F9FEDDB1A9FEDDB2A9FEDDB3AB3EE7B
:1024E0000E4A708900EE100A3889B8EE400A05EEEF
:1024F000100A20EE010A3089B8EE455A80EE020A31
:1025000025EE011A81EE021A30EE030A20EE040ACB
:1025100031EE031A87ED0A0A21EE048A87ED0B8A51
:1025200006F094FD9FEDB40B02460B4651EC100BE8
:1025300006F04CFF9FEDB20B53EC102B06F0F0FBB6
:102540009FEDB10B53EC102B06F02EFB06F0FAFAC0
:1025500000EE100ABBEE041A386428EE000AB4EE4E
:10256000410A87ED110AF1EE10FAB8BF04F07CF8C9
:10257000307C012810D000283ED1F8899FEDB41A94
:10258000400000EE100AB8EEC00A20EE010A9FEDEE
:10259000B21A80EE010A2BE007F1280007F14C0186
:1025A00007F1500207F1540304F06EFC97ED040AA2
:1025B0009FEDA71A30EE000A20EE010A10EE100A75
:1025C00006F0F2FF9FED920B53EC102B06F0A8FBE8
:1025D0000446A0480D46406C06F0E6FF02460B4656
:1025E0002046294606F0E0FA06F0ACFA00EE100AA2
:1025F00004F008F887ED120A97ED0B2A97ED160AFA
:1026000097ED103A97ED0A1AF88940F6B83102EEC4
:10261000020A97ED172A884203EE032A87ED160A6D
:1026200087ED172A97ED182A01EE012A97ED191A5E
:1026300087ED182A97ED1A2A01EE012A87ED1A2A4A
:1026400053D39FED868A0024FC8103F0CFFA80F1FA
:10265000C68087ED090A97ED170ABC6503F0C6FA34
:1026600080F1C08087ED0F0A97ED180A0024FC6501
:1026700003F0BCFA80F1B98087ED080A97ED1A0AD9
:102680003C6603F0B3FA80F1B38097ED0F1AB1EE18
:10269000042A002087ED1B0AB866B4EE421AF1EE58
:1026A00010FA03DD03F0E0FF97ED1B0A10EE100AAD
:1026B00006F07AFF9FED580B53EC102B06F0BBFF92
:1026C00008B903F0D1FF707C012834D080B9D7ED70
:1026D000090A96ED050A6448DFED641AB7EE001AA0
:1026E00004F0BFFB87ED1C0A08E00130F881707C24
:1026F00020B101282DD096ED008A40E097ED120A16
:1027000097ED1C1A21EE000A10EE100A87ED1E0A42
:1027100006F04AFF9FED420B55EC104B22462B462C
:1027200006F020FD22462B4606F03EFA06F00AFA95
:1027300008EE100A23E04A48D7ED0F0A96ED060A84
:10274000DFED481AB2EE041A543004F078FB87ED3E
:102750001D0A454897ED120A97ED1D1AD7ED100A8C
:1027600021EE000A243086ED010A03F053FB9FEDB1
:10277000401A30EE010A9FED3F1A80EE018A03F005
:10278000E5FA9FED290B04460D4653EC102B06F09D
:102790004BFF58B99FED260B2046294653EC102BD2
:1027A00006F049FF20B19FED358A01E09FED328AA6
:1027B000BEEE000ADFED320A9FED321A86ED008A86
:1027C00038EE000A30EE000A87ED190AB0EE480A2A
:1027D000BDEC028B01B0BDE8F04002F05DBF03F03C
:1027E00058FA36E703F055FA3CE703F052FA43E7AC
:1027F00003F04FFA49E700BFAC915D696903A0405F
:102800008B8054D40A947340000000A09999A93F8A
:102810000000000000807640CDCCCCCCCCCCEC3F8E
:10282000000000000000E03FAE47E17A14AEEF3F49
:102830007B14AE47E17A843F00050050B4020020CB
:102840003333534000F07F45CDCCCCBF380200205D
:10285000DB0F4940BC08002000007A4400803B4563
:1028600000000020BD3786358000002017B7D13822
:102870000000C84200004843A4707D3F0AD7233CB3
:102880000AD7A33C48E17A3F70477047F8B5044641
:10289000002000907CB3E06D30B9204600F0ECF8E9
:1028A000002084F85800206621688868800003D5DD
:1028B00088686A4A104088608868C00015D46748F4
:1028C0008A6800F180501040664A00F180508860AC
:1028D00063480068B0FBF2F0022202EB4000009077
:1028E000009810B100980138F9E78868C00004D456
:1028F00003F0D3F902E00120F8BD00208A68E36DFF
:1029000002F0040203F01003D218E26D10D122F499
:1029100081720232E2658A68D2072AD1534D41F4AE
:102920008073514AAB4207D11368D2F800510AE0D4
:1029300042F0100101208FE0D2F80034D2F80055A7
:102940001D43D2F800362B43DB0712D102F1F80306
:102950004FF4E065994208BF4FF44075B1F1A04FC4
:1029600008BF4FF440755359666823F47C13334312
:102970005351627FE36B43EA4232D4E902352A4382
:102980001A4394F8243042EA0342012B04D1A36A8B
:10299000374D05EB43431A43E36A23B1256B03F438
:1029A00078732B431A43CB68324D2B401A43CA60CD
:1029B000626B0B6923F040631A430A618A688B6873
:1029C00002F0040203F00803D21837D1CA6894F861
:1029D000385044F202039A43237F6D0045EA833363
:1029E0001A43CA6022690B694AB143F4803343F643
:1029F000FF750B61D1F8C030AB431A4307E023F4F5
:102A0000803243F6FF730A61D1F8C0209A43C1F8BF
:102A1000C0200A6994F84030012B0CD140F2FD73BC
:102A200004F144079A43E8CF1A432A4332433A4316
:102A300042F0010201E022F001020A610A6B6369BF
:102A400022F00F02012B02D1236A013B1A430A63D1
:102A50000122E16D62F30101E165F8BDC0FFFF5F96
:102A60008C010020400D03000800005000010050C0
:102A70000000FEFF0740F0FF2DE9F0439BB0044645
:102A800016A81421FDF79FFE01A85421FDF79BFE17
:102A90002068A649884243D0B0F1A04F40F0B180F1
:102AA0004FF0005012904FF40040019001A801F047
:102AB00029FB08B1FFF78AFA53480026016841F460
:102AC00000510160016801F4005100910099016812
:102AD00041F001010160006800F001000090032056
:102AE0001896179001201690009816A94FF0904064
:102AF00000F07AFB494D4FF440504FF0200C4FF45A
:102B000080614FF480728023052728624248C5E91E
:102B10000266C5E90432C5E9061CC5E9000768E09C
:102B20004FF0004013904FF48030019001A801F065
:102B3000E9FA08B1FFF74AFA33484FF000094FF0BD
:102B40000308324D324F016841F480410160016851
:102B500001F4804100910099016841F01001016089
:102B6000016801F0100100910099016841F0020133
:102B70000160016801F0020100910099016841F0D3
:102B800008010160006800F0080000900098CDF88E
:102B90006090CDF85C804FF44040169016AE05F57D
:102BA00040603146B8474FF480403146CDE917893F
:102BB00016902846B8474FF400503146CDE91789A2
:102BC000169005F50060B847124D134F4FF4405072
:102BD0004FF480614FF480728023262628622020E3
:102BE0002837C5E90299C5E90432C5E90076C5E987
:102BF0000610284600F04EFA08B1FFF7E7F9AC627C
:102C000065651BB0BDE8F0834C100240000400482D
:102C1000E9310008D80500200800024078050020AE
:102C20002DE9F041044600683F4F0E464FF4C16164
:102C30001546B84208BF4FF40271B0F1A04F08BF6B
:102C40004FF40271C9598268520703D494F858208E
:102C5000012A02D10220BDE8F08101F01F08012104
:102C600084F8581007F5A061884209D0B8F1090F1F
:102C70001FD8012040F2212100FA08F0084218D0A4
:102C80002046FFF70BF920B1002184F85810BDE869
:102C9000F0812168E06D40F60172904300F580708C
:102CA000B942E0650BD0214881420FD107F5407051
:102CB00007E0002084F858000120BDE8F0814FF0C3
:102CC000A040884218BFB8F1000F03D1E06D20F496
:102CD0008010E065E06D0022164B174FC00444BF22
:102CE000226E22F0060222661C2200200A604A6838
:102CF00042F010024A6084F858000D4A606DC0E945
:102D00000B7342632B46CA6842F00102CA6040312D
:102D1000324600F01BFA2168084B8A681A400432D8
:102D20008A60BDE8F08100BF00010050000500503E
:102D3000251E00083B1E0008C91D0008C0FFFF7FBC
:102D40002DE9F041884602F0C9FD00F0CB802071EA
:102D5000012016466071D8F80800042842D100F01E
:102D600011FB0746B6B12068406BB0F1FF3F1CDC99
:102D700000F008FBC01B0228F5D3206940F00800D2
:102D8000206103202071BDE8F08100F0FBFAC01B38
:102D90000228F2D22068406B0004F6D402F023FD32
:102DA0002068D8F82410016405E002F01CFD2068BA
:102DB000D8F824104164D8E90A2306F0100140F243
:102DC000FF35876C8D408A4027EA05052A438264D7
:102DD00003FA01F2FF2303FA01F1C36C23EA0101B4
:102DE0001143C164D8F81C10206806F010060129B0
:102DF00009D1D8F820101F22836BB240B14023EADA
:102E0000020211438163D8F81810C06B012908D061
:102E100002290FBF0121D8F81410B1FA81F1490934
:102E200000E00021D8F808201143D8F8142041EA26
:102E3000020798F804106FF44042012908BF47F4D4
:102E4000807798F80510012940F2073108BF47F450
:102E50000077B140514001EA0005D8F8000002288F
:102E600007D101F073FB2049884204D345F40045A3
:102E700006E0054304E01D49884288BF45F48045CB
:102E800007FA06F045EA0001206840F6FE75B540F5
:102E9000C1634FF480410268B14022EA0101016040
:102EA000D8E90312076801FA06F327EA050502F0DC
:102EB0003C02C1F383012B4341EA821140F60F72B9
:102EC0000360C023B240B1400568B34025EA030364
:102ED0000360036E23EA0202114301660020012110
:102EE00060712171BDE8F0810168890900B4C404F2
:102EF00078B110B50446007920B9002060712046F1
:102F000000F00AF8022001212071002020612171C7
:102F100010BD012070470000F0B587B0044600687E
:102F20001F490026CDE90566884237D11D48102784
:102F3000016841F480310160016801F48031019140
:102F40000199016841F001010160006800F0010091
:102F500001900320049602970390019802A94FF074
:102F6000904000F041F9104D104906204FF0200C20
:102F70004FF4806E4FF480728023C5E9001028461C
:102F80002E62C5E90276C5E90432C5E906EC00F017
:102F900081F808B1FFF71AF8AC62A56007B0F0BD80
:102FA000000800504C100240380600201C0002406F
:102FB00070B50D4602F092FC22D02071012005F080
:102FC000100621686071B0400A681043086002F082
:102FD0000AFC206802683DB1022102F4781201FA6D
:102FE00006F39A4205D007E002F03E01022903D120
:102FF000012142681143416000200121607121716B
:1030000070BDF0B5D0E910130268042403F01F036B
:103010000E6804FA03F51468354201D067071BD423
:1030200002259D40354201D0A7071FD426FA03F59B
:103030002D072ED524072CD5146824F00E04146017
:10304000012202FA03F34B600021C26380F82410CE
:1030500080F82520416B18E013689B0603D41368A1
:1030600023F0040313604D60016B0EE013689B06B0
:1030700006D4136823F00A031360012280F8252088
:10308000002280F824204D60C16A11B1BDE8F040F3
:103090000847F0BD002847D0F8B50446022029496A
:1030A00084F8250004F10806206801F1080268CEC2
:1030B0009042254A38BFA1F5806138BF02F5806291
:1030C00014270244B2FBF7F29200C4E9101247F64B
:1030D000F0720168914362691943294331431143F6
:1030E000A2691143E2691143226A1143016020463B
:1030F000FEF718FFA06804F14803B0F5804F06BF43
:10310000002060606068C5B20ECB013803280D60F6
:1031100053600BD82046FEF729FF04F15402002328
:1031200007CA03604A6005E0012070470020C4E937
:103130001500E06500200121E06384F8240084F894
:103140002510F8BD00040240F8FBFDBFB0B50446F1
:1031500090F82400012818D002F0B9FB13D1022006
:1031600084F825000020E0632068056825F001054B
:1031700005602046FEF70CFF2068226B016832B123
:1031800041F00E0109E002F02AFB0220B0BD21F05F
:1031900004010160016841F00A010160A16C0A6844
:1031A000D20303D50A6842F480720A60616D19B1D6
:1031B0000A6842F480720A60016841F0010101600E
:1031C0000020B0BDB0B5044600F0DCF80546054867
:1031D000611C406818BF044400F0D4F8401BA042B2
:1031E000FAD3B0BD780000202DE9FC4F5D4A0624DB
:1031F0004FF0000B4FF0010A4FF00009904200F130
:10320000384208BF05244FEAB223052B38BF4FEAE6
:10321000B224009400220B6833FA02F408BFBDE820
:10322000FC8F0AFA02F813EA080700F095800323DE
:103230004C6803FA09F36FEA030E04F00303A3F1E9
:10324000010CBCF1010F13D8866806EA0E0CCE689B
:1032500006FA09F646EA0C068660C4F3001606FA7A
:1032600002FC466826EA080646EA0C06466003E0C9
:10327000032B01D103231DE0C6688D6806EA0E0604
:1032800005FA09F53543022BC56013D16FF003052C
:103290000BF01C030F2405EA52059C4005442E6ADE
:1032A00026EA04040E6906FA03F323432B624C68F2
:1032B00004F00303056803FA09F305EA0E052B433E
:1032C00014F4403F036047D0294C274E22F00305F9
:1032D0002368B446354443F00103236023680F2478
:1032E00003F0010301930BF00C03019E9C40214E5F
:1032F000B646AE5926EA0404009E06FA03F32343B9
:1033000045F80E30DCF808304D6843EA0704EE0259
:1033100058BF23EA0704154BCCF80840AE029E467E
:103320001B6843EA070458BF23EA0704CEF80040AD
:10333000AE03DCF8043043EA070458BF23EA07046D
:10334000CCF80440ED03DCF8003043EA070458BF32
:1033500023EA0704CCF800400BF1040B09F1020941
:10336000013258E700140048000401400C040140F9
:103370006010024008FCFFFF1823002A08BF282322
:10338000C150704701480068704700BFC409002061
:1033900010B502F023FB01D1022358E002F0A3FA9A
:1033A00055D002F07CFB12D910292FD0202934D01F
:1033B000402937D080293AD0B1F5807F3CD0B1F593
:1033C000007F11D102F005FD62F31C6338E00FF2BB
:1033D0000601DFE803F0040C09110909091602F0DF
:1033E000F4FC62F3040315E002F094FC2AE002F01E
:1033F000ECFC62F38A130DE002F0E7FC62F3103399
:1034000008E002F0E2FC62F3964303E002F0DDFC28
:1034100062F31C63C1F8003414E002F0DAFC62F3DA
:1034200004030DE002F0D5FC62F38A1308E002F019
:10343000D0FC62F3103303E002F0CBFC62F396435E
:10344000C1F8043402F0EFFA01D002F030FC184663
:1034500010BD0000F0B502F0C1FA01D102239EE0D8
:1034600002F041FA00F09B8080F8DD3001234E1E0F
:1034700080F8DC300368072ED3F88043D3F8FC5380
:103480001AD910293DD0202949D0402954D080296B
:103490005FD0B1F5807F69D0B1F5007F19D1D3F845
:1034A000F86326F0F84602F083FC47EA866602F0ED
:1034B00041FC62F3165565E0DFE806F0040E0B15DB
:1034C0000B0B0B1C5668C3F8BC63528862F31244A2
:1034D00058E002F03FFC55E05668C3F8C0635288DC
:1034E00062F3D5444EE05668C3F8C463528862F371
:1034F000985447E05668C3F8C863528862F35B6427
:1035000040E0D3F8F86326F01F0602F051FC3E437A
:10351000C3F8F863EE08558866F3DF0532E0D3F8A8
:10352000F86326F4787602F043FC47EA461602F088
:1035300001FC62F3061525E0D3F8F86326F4F8469B
:1035400002F036FC47EA862602F0F4FB62F30A2515
:1035500018E0D3F8F86326F4F81602F029FC47EADD
:10356000064602F0E7FB62F30E350BE0D3F8F86392
:1035700026F0787602F01CFC47EA465602F0DAFBA9
:1035800062F3124502F0DEFB01D1012307E00F29AF
:103590008CBFC3F8FC53C3F8804302F027F91846E8
:1035A000F0BD10B502F090FA10D080F8DD200122B5
:1035B00080F8DC2002684C1CD2F8CC3302D002F038
:1035C00031FB01E023F0020102F071FA104610BD58
:1035D000F0B502F003FA01D1022332E002F083F9E0
:1035E0002FD080F8DD30184C536904EA034392E889
:1035F000F0006FF35F2504F4E0542C4406F40075EA
:103600002C44156905F480452C4407F400452C44EE
:103610002344946904F000742344146AD26904F0CA
:10362000804402F000422343084C1A4302F086FB18
:10363000D1F8B83023401A430023C1F8B82002F073
:103640000FFA1846F0BD00BF0000FF010020003C4B
:10365000002846D07CB5044602201C2184F8DD00F9
:1036600004F1E000FDF7AFF8207AC00719D0206818
:103670003849884209D125490A6842F080620A60C7
:10368000096801F08061019101990168D4E904237E
:1036900021F4704102F44042114403F440521144B9
:1036A0000160204600F020F8207A800706D52068C7
:1036B000E1680268090A61F3092202600025002618
:1036C000012084F8DC5084F8DD00C42E04BF002003
:1036D0007CBDA019142105631830FDF774F81C3661
:1036E000F3E70120704700BF81B0006819498842A4
:1036F00009D10648016841F080610160006800F06E
:1037000080600090009801B0704700BF60100240D8
:10371000FEB500680F49884219D10F48016841F091
:1037200001010160006800F0010000900D2005908B
:103730000320049000200390022002904FF4706058
:103740000190009801A94FF09040FFF74DFD06B0A1
:1037500080BD00BF006801404C100240F8B50D4626
:103760000446FFF70FFE06466F1C2068D0F888035A
:10377000C0030CD4002FF8D0FFF704FE801BA84232
:1037800001D8002DF1D102F0A4F90320F8BD02F018
:103790000CFAF8BD70B590F8DD400223022C29D058
:1037A00080F8DD30062903680DD1196892E87000B1
:1037B000D26826F0180621F01F0131431143196029
:1037C0005C619D6112E003EBC111D1F8803092E899
:1037D0007000D26826F0180623F01F0333431A4303
:1037E000C1F88020C1F89440C1F89850012100230D
:1037F00080F8DD10184670BDB0B590F8DD40022CA1
:1038000001D1022473E002F032FA00F0708080F8F7
:10381000DD400124062980F8DC400ED1511E072925
:1038200019D80FF20602DFE801F00419161D16166A
:10383000162101681A68CA6151E0013A072A0AD8BC
:10384000DFE802F0041809290909092E026802EBD1
:10385000C1111A683DE002F05DFA40E001681A68A3
:103860004A623CE001681A688A6238E001681A68B6
:10387000CA6234E0026802EBC111D3E90042C1F828
:10388000A4400C4654F8805F25F44055256032B3BF
:103890002568154315E0026802EBC1111A681CE0A7
:1038A000026802EBC111D3E90042C1F8AC400C46FA
:1038B00054F8805F25F44045256082B1256845EACB
:1038C0008205B2F5405F256006D0B2F5005F06D1F3
:1038D0009A68C1F89C2002E09A68C1F8A82090F884
:1038E000DD10072901D1012401E002F051FA204640
:1038F000B0BD4DF808ED02F0E7F85DF808EB09D02F
:1039000080F8DD200268136819431160734602F0E5
:1039100079F99E4610467047B0B502F068FA04BFC8
:103920000220B0BD94F8DC500220012D07D084F8AD
:10393000DD0002F025FA01F0DBF902F092F9B0BDEA
:103940004DF808ED02F0C0F85DF808EB0BD080F8F8
:10395000DD200268D2F894331943C2F894137346F9
:1039600002F050F99E461046704700002DE9F04FD6
:103970008DB002F03CFA01D102201CE10E4694F811
:10398000DC100220012900F0168184F8DD000120FE
:103990001546D4F80090062E84F8DC0037D1D9F80B
:1039A00000106B69D9F8A0C321F0E00123F0C00238
:1039B0000A43202B06D0AB69042B4FD0032B50D0E9
:1039C000022B51D142F02002874BD5E90771D5E98E
:1039D000090E1A4003F5006321F06E4120F06840A3
:1039E0003B401A43114308432EF060410843E96A03
:1039F00040EA8100696B20F000500843C9F80000DC
:103A00002CF48030296B0843C9F8A003B1E009EB1E
:103A1000C61A524652F8800F20F0704010601068AD
:103A20006F6920F02000202F47EA000E504650F822
:103A3000E81FCDE90910504650F8E4CF0B90D9F8B3
:103A4000A01306D0AF69042F11D0032F11D0022F7D
:103A500013D12EF4D07000F1200E10E042F080025D
:103A6000B2E742F04002AFE722F0E002ACE702200A
:103A700000E0012060F3C81E01E02EF4D07E6B6BE5
:103A80002CF48070D5E9117C0593AB6B47EA0008F4
:103A9000286DD5E907B70C93EB6B0690A86D0793DB
:103AA0002B6C04900893D5E909300090E86A0190E6
:103AB0004CF48050B0F5F05F02D10C98402803D14F
:103AC00028F4F05040EA0C08E86C052E0290686D6E
:103AD00003900FD839A050F8260000EA010C3846B0
:103AE0001F462B6B711C03FA01F13B4607464CEA5B
:103AF000010C00E08C4637480EEA000100F500603A
:103B000000EA0B000843B9B2084333490B4001F106
:103B100000611843009B19400843019908432F494D
:103B200008400599B1F1005F08BF00F500302C494D
:103B30000C9B0B4001F580211843049B194008435E
:103B4000069908431060274809990840079901F031
:103B50003F010844089908430A99086028F4804006
:103B6000029908430B9908600398CAF8D400C9F871
:103B7000A0C3C6EBC60095E88E0004EB800000F100
:103B8000200CACE88E00296901632046314601F023
:103B900095F8062E0DD0E86A58B9206800EBC610DB
:103BA000D0F88010EA6D21F4007141EA4221C0F89A
:103BB000801001F0FAFF0DB0BDE8F08FFFFFFDFFB0
:103BC000FFFFFBFFFFFFF7FFFFFFEFFFFFFFDFFF41
:103BD000FFFFBFFFFFF3FF01BFFF0006BFFF00FEB7
:103BE000FFFF02FEC0FFFF7FFFF3FF312DE9F04131
:103BF00002F0FDF804BF0220BDE8F08194F8DC304B
:103C00000220012B33D084F8DD001A4E4FF001085A
:103C100092E8091084F8DC80D768751CB64623F456
:103C2000403305EA0015206800EBC11050F8EC6F36
:103C300006EA0E0635432B4327F400352B439569DE
:103C400043EA0C03012D09D1D2E9045223F0060303
:103C500025F002052B431A4342F00103036020467E
:103C600001F02CF8002084F8DC0084F8DD80BDE849
:103C7000F08100BFEFFFECFF90F84120202A03D134
:103C800090F84020012A01D1022111E0242280F87D
:103C900041200268136823F001031360136823F4C2
:103CA0008053136013681943734601F0A6FD9E46C6
:103CB0000846704790F84120202A03D190F8402010
:103CC000012A01D1022110E0242280F8412002685B
:103CD000136823F001031360136823F4706343EA4D
:103CE0000121734601F089FD9E4608467047000099
:103CF00000B3B0B5044690F8410018B902F06DF871
:103D000000F0A8F8242084F84100D4E90003D4E9A5
:103D10000212056823F07063012A25F00105056091
:103D20000361836823F40043836005D141F40041BB
:103D3000816009E00120704741F40441022A81605A
:103D400004BF4FF40061416041680F4A04F110055F
:103D500011434160C16821F40041C1602ECD11437F
:103D600041EA0321C160216A29430160016841F0F1
:103D70000101016000202021606484F8411020636B
:103D800084F84200B0BD00BF008000022DE9F84376
:103D900001F0AEFD02D101F0E3FE03D10227384667
:103DA000BDE8F88301F068FF01F088FF0028F6D134
:103DB000212001F041FF2548618DB1F5807F02D3BC
:103DC00001F006FF01E001F00AFF2046414601F044
:103DD00075F8089F0025FF26608D48B320463946B8
:103DE0004A4601F0CFF840BB01F003FEF4D00004D6
:103DF000F2D12046802100223B4601F080FEE0B94E
:103E000001F079FF21BF268500952046414627BF56
:103E1000FF224FF08073608D20853FBF0095C2B2B6
:103E20002046414638BF4FF0007301F047F8D3E712
:103E30002046394601F0A9FF08B10127AFE7206805
:103E40002021034B01F04FFEA9E700BF00200080B6
:103E500000E800FE2DE9F0419CB0044602A8502184
:103E60000430FCF7B0FC20682349884240D1402050
:103E7000029002A800F046F908B1FEF7A7F81F4D1E
:103E80004FF0040800271226286840F0010028603F
:103E9000286800F0010017901798286840F0020089
:103EA0002860286800F0020001904FF40040CDF82F
:103EB0006C80CDE9197718961790019817AC4FF0E0
:103EC00090402146FFF790F94FF400702146CDE96C
:103ED0001A78CDE9186717900948FFF785F9E8685F
:103EE00040F40010E860E86800F4001001900198C8
:103EF0001CB0BDE8F08100BF005400404C100240EF
:103F0000000400481B48034940680A6810440860E0
:103F1000704700BFC409002080B5032000F084F87A
:103F20000F2000F007F808B1012080BD00F024F850
:103F3000002080BD70B50F4E04467068B0B14FF4DC
:103F40007A71B1FBF0F06A490968B1FBF0F000F05A
:103F500063FD01250F2C0AD848B94FF0FF302146E8
:103F60000022002500F03AF8346000E001252846E0
:103F700070BD00BF78000020E0B50E48816841F0B8
:103F800001018160816801F00101019101990168DD
:103F900041F080510160006800F08050009000986E
:103FA00000F02EFD022000F02FFDBDE88C4000F057
:103FB000A3B800BF5810024000280BD400F01F0126
:103FC0000122C0B202FA01F1034A42EAD00020F015
:103FD00003000160704700BF00E100E0F0B5184B3E
:103FE0004FF0FF361C68C4F30224E51E84F007047A
:103FF00038BF002506FA05F7BA43042C28BF04246D
:1040000006FA04F4A14300F00F04A940043C114354
:10401000044A234409010244002848BF03F10C026A
:104020001170F0BD00E400E005494FF6FF030A6897
:104030001A4060F30A22034810430860704700BF2B
:104040000CED00E00000FA0510B5B0F5007F21D0BE
:10405000002844D1C0480168D0F8802001F4C06134
:1040600022F48072B1F5806FC0F880203DD101F05C
:10407000F0FC1F49096851431E4AB1FBF2F10022CE
:1040800001314469013942F10003640521D5002B57
:10409000F7D11EE0B0480168D0F8802001F4C0617B
:1040A00042F48072B1F5806FC0F880201DD101F01C
:1040B000D0FC0F49096851430E4AB1FBF2F10022CE
:1040C00001314469013942F10003640501D5002B37
:1040D000F7D14069400544BF032010BD05E09E486C
:1040E0000222016862F34A210160002010BD00BF76
:1040F0008C01002040420F00014801F02CBD00BFA0
:10410000087000402DE9FC4104468078914E00077C
:1041100001D400204BE0F06C10F0805808D1F06C16
:1041200040F08050F064F06C00F0805001900198F5
:10413000894F386840F480703860FFF723F90546EE
:104140003868C00506D4FFF71DF9401B0228F7D9CF
:10415000032025E0D6F8840010F4407017D0216DBC
:10416000884211D0D6F88400D6F8841041F480310A
:1041700020F44070C6F88410D6F8841021F4803101
:10418000C6F88410C6F88400C00740F0D380206DC4
:10419000D6F8841021F440710843C6F8840000204A
:1041A000B8F1000F03D1F16C21F08051F164216866
:1041B000CA0705D06268F36F23F003031A43F2675E
:1041C0008A0705D5A268F36F23F00C031A43F26740
:1041D0004A0705D5E268F36F23F030031A43F2670C
:1041E0000A0705D52269F36F23F0C0031A43F2676B
:1041F000CA0605D56269F36F23F440731A43F26768
:104200008A0605D5A269F36F23F440631A43F26767
:104210004A0605D5E269F36F23F440531A43F26767
:104220000A0605D5226AF36F23F440431A43F26766
:10423000CA0505D5626AF36F23F440331A43F26767
:104240008A0307D5A26AD6F8903023F003031A43F5
:10425000C6F890208A0505D5E26AF36F23F440235F
:104260001A43F2674A050AD5226BF36F23F4401311
:104270001343B2F5801FF36701D101F0ABFA0A05D1
:104280000AD5626BF36F23F440031343B2F5800F3A
:10429000F36701D101F09EFACA040AD5A26BF36F4D
:1042A00023F040731343B2F1807FF36701D101F033
:1042B00091FA8A0405D5E26B01F0C3FB01D101F04C
:1042C00089FA4A0405D5226C01F0BBFB01D101F04B
:1042D00081FA0A040CD5626CF36F23F04053134348
:1042E000B2F1805FF36703D1326842F4803232600A
:1042F000CA030CD5A26CF36F23F040431343B2F111
:10430000804FF36703D1326842F480323260490350
:104310000ED5E16CD6F8902022F440120A43B1F594
:10432000001FC6F8902003D1316841F4801131603C
:10433000BDE8FC81FFF726F8054641F28837D6F83C
:10434000840080073FF523AFFFF71CF8401BB842FD
:10435000F5D9FDE60C100240007000402DE9F04751
:10436000002855D0754B04460D46186800F00F0024
:10437000884209D2186820F00F0028431860186896
:1043800000F00F00A84243D12068954E9A46C1071D
:10439000B14602D181077AD48CE06168022933D01A
:1043A000032938D156F8081C890131D57168726823
:1043B0007368B4467668022701F00301C6F34166CC
:1043C0000329C2F3031107EB4606864FC3F3062207
:1043D00001F1010104BF41F20027C0F27A07B7FBE7
:1043E000F1F15143564AB1FBF6F1914224D9DCF880
:1043F0000010664611F0F00F16D0800701D5A068B6
:1044000090B14FF000081AE056F8080C800306D46B
:104410000120BDE8F08756F8080C4005F8D500F0FB
:10442000B1F847498842ECD9306808214FF00108BB
:1044300061F30710306002E04FF0000866466068E4
:10444000316821F0030108433060FEF79BFF064608
:1044500041F2883749466068D9F8001001F00C0134
:10446000B1EB800F05D0FEF78DFF801BB842F1D96C
:104470003BE02068810708D4B8F1000F4E46534650
:1044800018D0316821F0F00113E04E465346410741
:1044900003D5316841F4E0613160010704D531682A
:1044A000072262F30D213160A168326822F0F00228
:1044B00011433160196801F00F01A9421AD9186837
:1044C00020F00F0028431860FEF75CFF064641F21B
:1044D00088375046DAF8000000F00F00A84207D0F5
:1044E000FEF750FF801BB842F3D90320BDE8F087E8
:1044F00020684E46410705D5E168326822F4E06243
:1045000011433160000706D52069316821F46051FC
:1045100041EAC000306000F035F83168094AC1F363
:104520000311515C01F01F01C8401449086006489E
:104530000068BDE8F047FFF7FDBC00BF0020024067
:1045400000B4C404B0980008780000200B4800684C
:10455000704700BF09482249094A00680968C1F349
:10456000022101F0AFB900BF04481D49044A0068A8
:104570000968C1F3C22101F0A5B900BF8C01002078
:10458000C09800081649174A086800F00C00042873
:10459000104624D0086800F00C031348082B1ED0E6
:1045A0000B6803F00C030C2B1CBF002070474B68FA
:1045B00003F00303032B08BF02464868C0F303104F
:1045C0000130B2FBF0F04A684968C2F30622C1F339
:1045D00041615043022202EB4101B0FBF1F0704710
:1045E000081002400024F40000127A002DE9FC417A
:1045F00000287AD004460078D84EC00712D0B068A0
:10460000F16800F00C000C2803D101F0030103292C
:1046100002D0082840F0CD803068800302D5606861
:10462000002862D02078800745D4207800075FD426
:104630002078400773D42078800600F1A380E069D9
:10464000B8B3B16801F00C010C2940F0E8800128F2
:104650004BD0216AF06800F003028A4245D1616ABA
:104660006FF00F0202EB011100F0F0028A423CD120
:10467000A16A00F4FE42B2EB012F36D1E16A00F0EC
:104680007842B2EBC16F30D1216BDC4A02EA0151B2
:1046900000F4C002A1F500118A4226D1616B4FF0EF
:1046A0007E4200F0C06002EA016101F17E41884271
:1046B0001BD1002097E1B068F16800F00C000C28D5
:1046C00003D101F00301022902D0042840F09380B5
:1046D0003068400501D5E06838B101F073F8C3488F
:1046E0000068FFF727FC00289FD00120BDE8FC816F
:1046F000D6F89400616900296BD040F00100C6F83B
:104700009400FEF73FFE0546D6F8940080073FF57B
:104710008FAFFEF737FE401B0228F5D9D8E0B06D09
:1047200010F0805808D1B06D40F08050B065B06D89
:1047300000F0805001900198AD4F3868C0050FD44B
:10474000386840F480703860FEF71CFE0546386813
:10475000C00505D4FEF716FE401B0228F7D9B7E0C6
:10476000A068012807D005287ED1D6F8900040F037
:104770000400C6F89000D6F8900040F00100C6F89A
:1047800090007FE0D6F89800A16900295AD040F047
:104790000100C6F89800FEF7F5FD0546D6F898002A
:1047A00080073FF54CAFFEF7EDFD01F046F9F5D976
:1047B00019E16068B0F5803F06D0B0F5A02F70D148
:1047C000306840F480203060306840F480303060E1
:1047D00072E020F00100C6F89400FEF7D3FD054614
:1047E000D6F8940080077FF523AFFEF7CBFD401B82
:1047F0000228F5D96CE03068E16800296BD040F4FC
:1048000080703060FEF7BEFD05463068400500F15F
:104810008880FEF7B7FD01F010F9F6D9E3E03168C2
:10482000022821F08071316065D1FEF7ABFD0546AD
:104830003068800140F19480FEF7A4FD01F0FDF89E
:10484000F6D9D0E020F00100C6F89800FEF79AFDF6
:104850000546D6F8980080077FF5F1AEFEF792FD89
:1048600001F0EBF8F5D9BEE0D6F89010002821F061
:104870000101C6F89010D6F8901021F00401C6F896
:10488000901051D0FEF77EFD054641F28837D6F8EC
:104890009000800758D4FEF775FD401BB842F6D94A
:1048A00016E03168002821F480313160316821F44C
:1048B0008021316000F08A80FEF764FD0546306893
:1048C00080033FF5AFAEFEF75DFD401B6428F6D9CF
:1048D0000320BDE8FC8120F480703060FEF752FDBB
:1048E0000546306840057FF5A0AEFEF74BFD01F0B0
:1048F000A4F8F6D977E0F0683E4920F00300F060B4
:10490000F0680840F060FEF73DFD04463068800125
:104910007FF5CFAEFEF736FD011B03200229F5D946
:1049200061E000F04FFF80E6FEF72CFD054641F206
:104930008837D6F89000800706D5FEF723FD411B87
:104940000320B942F5D94EE0B8F1000F7FF473AE01
:10495000B06D20F08050B0656DE600BF00100240E1
:1049600004F120036FF00F05234F0FCB05EB01116E
:10497000F5683D4028430843216B40EA02201F4A66
:1049800002EA01514FF07E42A1F500110843616B2C
:1049900040EAC36002EA016101F17E410843F06030
:1049A000306840F080703060F06840F08070F060F7
:1049B000FEF7E8FC0446306880013FF57AAEFEF76A
:1049C000E1FC011B03200229F5D90CE0FEF7DAFC1B
:1049D0000546306880037FF525AEFEF7D3FC411B0A
:1049E00003206429F5D9BDE8FC8100BF78000020D0
:1049F00000700040FFFFEEFE0C809F010000E0FF12
:104A0000044801F0A3B800BF02490A6822F002027C
:104A100000F0D5BE30000140411E0020B0EB116F08
:104A20001CBF01207047044AF023516003490B70FA
:104A3000072190601160704710E000E023ED00E076
:104A400070B590F83C300222012B38D080F83D2020
:104A50004C4C026855689368A24205D04B4EB24256
:104A600002D0494EB24203D14E6825F47005354359
:104A7000144E35400E683543B2F1804F556013D067
:104A80003D4DAA4210D03D4DAA420DD03C4DAA4208
:104A90000AD0A24208D03C4CA24205D03B4CA242D4
:104AA00002D03B4CA24204D1896823F08003194311
:104AB00091600022012180F83C2080F83D101046D2
:104AC00070BD00BF8FFFFFFD58B110B501F02DF98B
:104AD00003D101F071F800F007F801F08DF900F052
:104AE0000CBF01207047000081B000680749884270
:104AF00009D10748016841F010010160006800F029
:104B000010000090009801B0704700BF00100040F6
:104B10005810024090F83D1001291CBF0120704739
:104B2000022180F83D100168B1F1804F14D0124885
:104B3000814211D0114881420ED0114881420BD0E0
:104B40001048814208D01048814205D00F48814268
:104B500002D00F48814209D188680E4A734601F09D
:104B6000CEF89E4606D0B2F5803F03D0724600F0E4
:104B700005FF9646704700BF000400400008004053
:104B8000000C0040002C0140003401400050014066
:104B9000004001400700010090F88010012901D178
:104BA000022112E02421C0F8841001680A680B6811
:104BB00023F0010322F000520B600A600021202242
:104BC000416680F88010C0F8842008467047B0B570
:104BD00000F0D5FF04BF0220B0BD00F01AFE22F0A5
:104BE000606201F01AF800F0A3BEB0B500F0C7FF94
:104BF00004BF0220B0BD00F00CFE22F0604201F0C4
:104C00000CF800F095BE10B548B10446D0F8840009
:104C100008B900F0B9FE00F0A7FF012801D101207A
:104C200010BDA06A08B101F019F801F010F821F0E8
:104C30002A01816000F0C7FEBDE8104001F010BB02
:104C400010B59CB0044602A84C210830FBF7BBFD10
:104C500020681749884228D100240120039402903B
:104C600002A8FFF74FFA08B1FDF7B0F91148416902
:104C700041F480414161416901F4804117911799E4
:104C8000016841F010010160006800F0100001901F
:104C90000720CDE919441B9002201890032017909B
:104CA000019817A90448FEF79FFA1CB010BD00BF79
:104CB000003801404C10024000100048062908D876
:104CC000006804A252F82110D0F884231143C0F8E0
:104CD0008413704702000000040000000800000078
:104CE0001000000020000000400000000100000053
:104CF000F0B50068571E0024072F00EBC116B6461A
:104D00005EF8E45F5EF82CCC14D9102A1AD0202A61
:104D100020D0402A16D0802A1CD0B2F5807F11D036
:104D2000B2F5007F16D0B2F5006F13D0B2F5806FE8
:104D300008D016E00FF20402DFE807F0040C1304B9
:104D40001313130CD3E90124C6F8BC20C6F8C040E5
:104D5000002406E0D3E90124C6F8C420C6F8C84000
:104D60001024FE22996903F10C071868A24025EA75
:104D70000202E0CF3943314329430843A0400243B4
:104D8000082E08D11CF4007008BF1CF0007002D17E
:104D9000D869A0400243CEF80020F0BDFEE70068CD
:104DA0008169890744BF002181628169C90703D1F4
:104DB000816941F001018161704700002DE9F047F0
:104DC000044600688A4600278169C90601D400218B
:104DD00046E0102190460AF101064FF02009002517
:104DE000C161816901F02001294334D10025002EE1
:104DF000F7D0FEF7C7FAA0EB08012068514503D8A9
:104E00000025BAF1000FECD1426894F84210836992
:104E10001B0409D512F4804206D1202904D000F0E9
:104E2000BEFFFEF7AFFA804600252068816989063B
:104E3000D7D4FEF7A7FAA0EB08001A28F5D3606CC8
:104E4000012540F02000606484F8419084F84070AF
:104E500084F84270E9E70DB92021C16101210427DE
:104E60008269D30505D54FF4807147F00107C16110
:104E70000121530505D4920509D469B90020BDE884
:104E8000F0874FF480610837C161910504D54FF474
:104E9000007147F00207C1612046FFF780FF2068DC
:104EA000054A416811404160606C384300F081FD63
:104EB0000120BDE8F08700BF00E800FE70B5049C4B
:104EC0004FF480656FF39F21074E006841EA02416D
:104ED00005EA5455194375404668214321F00041C5
:104EE00035402943416070BD009C00FC2DE9F8432A
:104EF000DDF820801D4616460F4681465C1CD9F819
:104F0000000080693840C01BB0FA80F04009B04210
:104F10001AD1002CF3D0FEF735FAA0EB0800A84216
:104F200001D8002DEBD1D9F8440040F02000C9F899
:104F30004400202089F84100002089F8400089F8C9
:104F400042000120BDE8F8830020BDE8F88370B579
:104F500015460E46044620688069800644BF00203E
:104F600070BD00F091FE58B9FEF70CFA401BB0423C
:104F700001D8002EEFD1606C40F0200000F019FD48
:104F8000012070BDF8B515460E4604464F1C20683A
:104F90008069800744BF0020F8BD00F075FE68B945
:104FA000002FF4D0FEF7EEF9401BB04201D8002EDE
:104FB000EDD1606C40F0200000F0FBFC0120F8BD5A
:104FC00010B5C1F30453C1F34061072400EB810025
:104FD0009C409A404169A1431143416110BD0000CA
:104FE00070B58CB0002420210B94CDE9094401A8B0
:104FF000FBF7E9FB2348A025102601234FF440319D
:105000004FF0A042C0E911654FF48055C0E9134349
:1050100080F8403080F83830036208234FF4D466BB
:1050200080F824408483C0E90021C0E90244C0E93B
:105030000444C5634FF480658361C0E90B65FDF7E7
:1050400025FC08B1FCF7C2FF0E48099409A9FDF739
:1050500005F808B1FCF7BAFF00200690042005907F
:105060007F2004900220039006200290384801908F
:10507000044801A9FDF770F808B1FCF7A7FF0CB0D0
:1050800070BD00BF8C04002070B588B06846202138
:10509000FBF799FB2B480823602203264FF4D465C5
:1050A00001210024C0E911324FF48052C0E90A65A1
:1050B000254DC0E9134180F8401080F8381080F881
:1050C000241006628483C0E90244C0E9044183617C
:1050D000C2634FF4806202634FF44032C0E9005271
:1050E000FDF7D4FB08B1FCF771FF04206946059475
:1050F0000490164803900220029006200190144864
:1051000000901048FDF728F808B1FCF75FFF7F20FA
:10511000694603900C2001900E4800900948FDF765
:105120001BF808B1FCF752FF1220694601900A48AB
:1051300000900448FDF710F808B1FCF747FF08B0ED
:1051400070BD00BFF80400200005005000007F4043
:10515000020030041000C0100004002A80B58CB09A
:1051600068462C210430FBF72EFB0F480F490160E5
:10517000FDF7BEFE08B1FCF729FF01210020002247
:10518000069102210790CDE90200ADF80400CDE9B7
:105190000401054800916946FDF7D2FD08B1FCF70E
:1051A00015FF0CB080BD00BF640500200008005052
:1051B000BCB51548154C0022016841F0040101609E
:1051C000016801F0040101910199016841F00101B8
:1051D00001600021006800F00100009000980B20A1
:1051E000A0470B4D0B20A8470C2000210022A04710
:1051F0000C20A8470D2000210022A0470D202946A1
:10520000BDE8BC40084700BF48100240DD3F000831
:10521000B93F00082DE9F04F87B04FF00008324841
:1052200001224FF480664FF0010ACDF81880016822
:1052300041F020010160016801F0200100F0BBFA9B
:1052400041F001010160016801F0010100F0B3FAD1
:1052500041F010010160016801F0100100F0ABFAAB
:1052600041F002010160016801F0020100F0A3FABF
:1052700041F008010160016801F0080100F09BFAAB
:1052800041F0040101604FF48061006800F0040007
:10529000019001981548A0F5806583462846FEF7E1
:1052A0006BF858460F2100224FF00F09FEF764F803
:1052B0000327CDE9026A0E4C2846CDE9048702AEE9
:1052C0003146A04758463146CDE90487CDE9029AD8
:1052D000A04702203146CDE90380F02002905846D5
:1052E000A04707B0BDE8F08F4C100240000C00480A
:1052F000E9310008F0B5BBB000266021CDE9386681
:10530000CDE93666CDE934661CAD2846FBF75BFA7D
:105310001B96CDE9196612A81C21FBF754FA09A8BF
:105320002421FBF750FA01AC20212046FBF74BFA71
:10533000E9489449C0E900168660FEF789F908B18A
:10534000FCF744FEE4480C21FEF72BF908B1FCF70A
:105350003DFEE1480A21FEF701FA08B1FCF736FEEE
:1053600008200121399000203890DB4838AAFEF748
:1053700071F808B1FCF72AFED74801210022012666
:105380000027FEF705F808B1FCF720FE0820CDE95C
:105390003576062137904DF280403490CE4834AABD
:1053A000FEF7F8F908B1FCF711FE012000261421E0
:1053B000209005F11400CDE91E66CDE91C66FBF7CF
:1053C00002FA4FF0005006212A463396CDE92766AF
:1053D00029904FF000602690BF48FEF7C7FA08B149
:1053E000FCF7F4FD3020062102221990BA4819ABCF
:1053F000FEF702FA08B1FCF7E9FDB74819AB062140
:105400000422FEF7F9F908B1FCF7E0FDB24819AB48
:1054100006210822FEF7F0F908B1FCF7D7FD1020AD
:10542000002100253790AC4834AAFEF7B3F908B143
:10543000FCF7CCFDA84818951595129512AA0021E5
:10544000FEF7D4FB08B1FCF7C1FD4FF480204FF408
:1054500080713290402031900020CDE92C013090B5
:105460002E90CDE92A00CDE91C009B481CAA002102
:10547000FEF77CFA08B1FCF7A9FD802001213190EC
:1054800095481CAAFEF772FA08B1FCF79FFD4FF68B
:10549000EF7000210122002519908F4819ABFEF70B
:1054A000ABF908B1FCF792FD64201195CDE90F55D9
:1054B000CDE90B550021CDE90D50CDE909508648C5
:1054C00009AAFEF785F808B1FCF780FD824809AA11
:1054D0000121FEF77DF808B1FCF778FD08201421C2
:1054E00003904FF4007002900020019004F10C0032
:1054F000FBF769F97848002101222346FEF70CFAF0
:1055000008B1FCF763FD4FF4806001210422029092
:10551000714801ABFEF700FA08B1FCF757FD002017
:1055200000210222CDE902006B4801ABFEF7F4F93D
:1055300008B1FCF74BFD684801AB01210822FEF7DA
:10554000EBF908B1FCF742FD634834AA0121FEF7EC
:1055500021F908B1FCF73AFD5F4812AA0121FEF7D4
:1055600045FB08B1FCF732FD5B4819AB0121012274
:10557000FEF742F908B1FCF729FD5748FEF7C8F8D5
:105580003BB0F0BD0068014010B5144C0120002173
:10559000134A144BC4E9021004F110001421C4E9A9
:1055A0000032FBF710F92046FEF7A2FB08B1FCF72A
:1055B0000DFD0A480021FEF75FFB08B1FCF706FD70
:1055C00006480021FEF776FB08B1FCF7FFFC064811
:1055D000016841F48011016010BD00BF94070020F4
:1055E0007221800000540040040001401FB50E48A5
:1055F00080210E4B0024A922029481611321C0E96D
:105600000032C0E90241FFF75FFA08B1FCF7DEFCA7
:10561000202003940190044801A9FFF711FA08B172
:10562000FCF7D4FC1FBD00BFE007002000100040C5
:1056300010B5174C00210C20164B4FF4E132C4E991
:105640000410C4E9021104F118001421C4E9003265
:10565000FBF7B9F82046FFF7D6FA08B1FCF7B6FC1D
:105660000B480021FFF7C1FA08B1FCF7AFFC08486E
:105670000021FFF7ACFA08B1FCF7A8FC0448FFF7DB
:105680008BFA18B1BDE81040FCF7A0BC10BD00BFFC
:105690002C080020003801400F483021B4EE410AA8
:1056A000F1EE10FAB4EE600A006841628162C162F4
:1056B000B8BFB0EE401A9FED090AF1EE10FAB8BF7C
:1056C000B0EE601A21EE000ABCEEC00A80ED270A97
:1056D00080ED470A704700BF9806002000805447BD
:1056E000FEE7FEE790ED000ABAEE006A90ED044A8C
:1056F00090ED022A90ED033A90ED011A20EE067A21
:1057000030EE005A62EE024A86EE046A30EE011A6A
:1057100087EE047A22EE055A86EE046A87EE047A52
:1057200005EE027AB1EE005AC5EE042A63EE050AD0
:1057300020EE055A22EE000AC0EE841A85EE045AC5
:1057400020EE020AC2EE842A85EE045A72EEA13AD5
:1057500074EEA33A87EE237A80ED097A32EEE17A8D
:1057600034EE877A87EE237A80ED077A32EE027A7A
:1057700007EE026A86EE236A80ED066AB9EE006AD9
:1057800023EE063AB0EE456A83EE043A03EE016A70
:1057900020EE811A30EE062A81EE041A82EE232AC8
:1057A00035EE011A80ED0A2A30EE010A80EE230A56
:1057B00080ED080A70470191019901687047104314
:1057C000086070472069716821F0FE4141EA00607D
:1057D00070607047326842F4801232607047002077
:1057E00084F8240070470120FDF7ECBC0023012160
:1057F00080F8DC3080F8DD1070471160116841F0EE
:10580000010111600021202280F8401080F8412021
:1058100070472420C4F8840020680568026822F0DC
:1058200001020260012284F88020826870470146EC
:105830003046009501F0E2BD0D46044602F0FABA8A
:105840004569282100220023044628474DF808ED29
:10585000B0EE618AB0EE419AB0EE60AAB0EE40BA06
:10586000044601F0D7FA94ED012A94ED034A94ED31
:10587000001A3BEE4A5A94ED040A94ED023A84ED84
:10588000035A22EE042A84ED044A01EE052A03EEAF
:10589000002A94ED050A32EE000AB4EE480A84EDBF
:1058A000050AF1EE10FAB4EE490A5DF808EB70470C
:1058B000E06D40F01000E065206E40F001002066D1
:1058C000012070BD515C01F01F01C84070470120EC
:1058D00084F8240094F82500012870474179044693
:1058E00002200129704790F8DC400223012C704708
:1058F000044690F8410020287047012084F84800B1
:1059000084F83E0084F83F0084F8400084F84100A9
:1059100084F8420084F8430084F8440084F8450089
:1059200084F8460084F8470084F83D00002010BD4C
:10593000206820210560002084F88000C4F88410CD
:10594000B0BD82B2404601F028BC00930646234613
:1059500002F036B92046294602F06BB9204602F023
:1059600095B92068292102792046284781688268F4
:1059700001F0040102F0080289187047086840F03D
:105980000100086000207047002084F88000204655
:10599000FFF756B91E46154601EB800170470C997A
:1059A000029822465B460027CDE9000150460021BF
:1059B00070476064202084F84100002084F8400093
:1059C00084F842007047016841F0010101602046FF
:1059D000704720461821324602F09CBA90F8DD301C
:1059E000022B7047A7EB4405C4F101064FF00108F4
:1059F0007047616A206811F8012B8262608D01385E
:105A000060856162208D01382085618D0029704795
:105A1000F01B81B204EB090082B240467047204679
:105A2000324602F077BA90F8DD100123072970475B
:105A300008F12C063046FAF785BE411B03200229E7
:105A40007047F36F23F040631343B2F1006FF367C5
:105A500070470168012262F34A21322201607047D7
:105A6000012180F8DC3080F8DD107047204602F01C
:105A7000DAB8204602F0BEB9B8EE411A30EE410A5B
:105A8000B7EE001A01EB800031EE401A90ED013ABA
:105A900090ED002A20EE030A01EE020A704780F81A
:105AA000DD30012380F8DC304B1E072B7047C2F835
:105AB000CC13D2F8CC1341F00101C2F8CC13012170
:105AC000002280F8DD10704790F8DC300222012BB4
:105AD0007047072084F8DD00704700222B460090B5
